:100000000C9487020C94030B0C94300B0C94AF02ED
:100010000C94AF020C94AF020C94AF020C94AF029C
:100020000C94AF020C94AF020C94AF020C94AF028C
:100030000C94AF020C94AF020C94AF020C94AF027C
:100040000C945D0B0C94AF020C94200D0C946E0D6F
:100050000C94AF020C94AF020C94AF020C94AF025C
:100060000C94AF020C94AF022C2000000007060095
:1000700000030241D7000000000000000000000063
:1000800000000000000000000000000000001F064B
:100090001000000000000000040004010100000640
:1000A0000000900000000000000000000000001FA1
:1000B00006101C000200000000000000000000000C
:1000C0000000000000001000000010039001FF007D
:1000D0001F061038FFFF0258000500000000000056
:1000E00000140000001000000004000000000000E8
:1000F0000005061054000000000000000000000091
:1001000000000000000000000000000000000000EF
:1001100000001F0620000404020200012800010064
:10012000180404050500022803010E0300002A0438
:10013000140A001F06201C0A00032A0001424C4535
:1001400020536869656C64040405050004280301F4
:10015000020500001F062038012A060403020005DC
:100160002A01010000040405050006280301020716
:1001700000042A06001F06205404090800072A0468
:10018000010600120000000A000404020200082810
:100190000001011804001F06207004101000092837
:1001A00000011E948DF1483194BA754C3E50000008
:1001B0003D7104041313001F06208C000A2803015C
:1001C000040B001E948DF1483194BA754C3E5003D7
:1001D000003D7144101400001F0620A8000B00030E
:1001E000020000000000000000000000000000000D
:1001F0000000000000040413001F0620C413000CBC
:10020000280301100D001E948DF1483194BA754CED
:100210003E5002003D71140014001F0620E0000053
:100220000D000202000000000000000000000000BD
:1002300000000000000000004614001F0620FC0320
:1002400002000E290201000004040202000F28002F
:10025000010A180404050500102803001C062118D3
:1002600001021100272A0404090100112A27010AAA
:10027000000000000000000000000000001F064019
:10028000002A0001008004000300000003020008AF
:1002900004000B0000000202000204000D000F0623
:1002A000401C000E2A2701008004001100000000FD
:1002B000000000000000000000000000000000132B
:1002C0000650001E948DF1483194BA754C3E500092
:1002D000003D710000000000000000000000000070
:1002E0000F06600000000000000000000000000099
:1002F00000000000000000000000000000000000FE
:10030000000606F000036A44000000000000000040
:1003100000000000000000000000000000000000DD
:100320000045767420446576696365205374617274
:100330007465643A205365747570004572726F720B
:1003400020696E20414349205365747570004576DD
:1003500074204465766963652053746172746564C2
:100360003A205374616E64627900416476657274F8
:100370006973696E672073746172746564004143C8
:100380004920436F6D6D616E642000457674204393
:100390006D6420726573706F6E653A204572726F7E
:1003A000722E2041726475696E6F20697320696EC8
:1003B00020616E207768696C652831293B206C6F5D
:1003C0006F700045767420436F6E6E65637465646C
:1003D000004576742050697065205374617475739C
:1003E00000457674206C696E6B20636F6E6E65637A
:1003F00074696F6E20696E74657276616C206368D3
:10040000616E6765640045767420446973636F6E3E
:100410006E65637465642F4164766572746973698F
:100420006E672074696D6564206F75740041647631
:100430006572746973696E67207374617274656440
:10044000004143492045767420506970652045720B
:10045000726F723A205069706520233A0020205054
:10046000697065204572726F7220436F64653A202F
:1004700030780044657669636520737461727465D1
:100480006400476F7420424C452042595445203A3D
:100490002000424C4520646973636F6E6E6563741F
:1004A000656400424C4520636F6E6E6563746564DD
:1004B0000000000000240027002A000000000025A2
:1004C0000028002B00000000002300260029000463
:1004D00004040404040404020202020202030303EB
:1004E00003030301020408102040800102040810E5
:1004F0002001020408102000000007000201000093
:10050000030406000000000000000000DA0E1124C1
:100510001FBECFEFD8E0DEBFCDBF11E0A0E0B1E05D
:10052000E6E9F2E202C005900D92A43AB107D9F7CC
:1005300024E0A4EAB1E001C01D92A439B207E1F7BA
:1005400015E0CEE0D5E004C02297FE010E941C1108
:10055000CC30D107C9F70E94300F0C9449110C948C
:10056000000021E0FC01208329E021830895DC01C3
:10057000842F8E5F8C938DE011968C931197E62FCC
:10058000F72F819112968C931297139650E06E2F4D
:100590007F2F8A2F9B2F0E9440110895FC01DB01C1
:1005A00085E080838FE0818311968C9111978383FE
:1005B0008C91828313968C911397858312968C91DC
:1005C0008483089521E0FC0120832EE02183089597
:1005D000DC01842F8E5F8C9385E111968C931197AB
:1005E000E62FF72F819112968C931297139650E075
:1005F0006E2F7F2F8A2F9B2F0E944011089521E09C
:10060000FC01208323E121830895FF920F931F9320
:10061000CF93DF93EC018B01FB01808199898917CE
:1006200008F50F2EF1E2FF2EF02D6F857889F89EE8
:10063000600D711D1124FB013196449150E04E5F15
:100640005F4F84ED92E00E94371184ED92E00E94AA
:10065000A504882339F0F80180818F5F8083998910
:10066000891718F3DF91CF911F910F91FF90089593
:100670006F927F928F929F92AF92BF92CF92DF92B2
:10068000EF92FF920F931F93CF93DF931F92CDB7FB
:10069000DEB77C01198288E8809303000FEF1FEF1B
:1006A000C12CD12C0F2EF6EDAF2EF2E0BF2EF02D87
:1006B0000F2EF8ED6F2EF2E07F2EF02D0F2EF5EDC0
:1006C0008F2EF2E09F2EF02DF701918989818917F5
:1006D00030F4BE016F5F7F4FC7010E9405030150D8
:1006E0001109B9F064ED72E0C7010E94D0068823B9
:1006F00059F0F5018081843871F4F3018081982FDD
:100700009150923048F46401F60183818230E1F621
:1007100003C081E801C081E80F90DF91CF911F9164
:100720000F91FF90EF90DF90CF90BF90AF909F9090
:100730008F907F906F900895FC011092B002DC01C1
:10074000AC57BF4F1C92DC01AB57BF4F1C921182BC
:10075000128212A213A2DC01AD5BBF4F1C92DC011E
:10076000AC5BBF4F1C92DC01AC59BF4F1C92EB59E4
:10077000FF4F108208958EBD0DB407FEFDCF8EB5DC
:100780000895FC01EC57FF4F2081FC01EB57FF4F10
:1007900030812317B9F0FC0131E2239FE00DF11DF8
:1007A000112421E2DB0101900D922A95E1F7FC0171
:1007B000EC57FF4F808190E00196837090788083A2
:1007C00081E0089580E008950F931F93CF93DF9306
:1007D000EC0109814AE050E0602F82E794E00E943A
:1007E0004F1063E271E082E794E00E94D21010E0C3
:1007F000FE01E10FF11D40E150E0618182E794E0EC
:100800000E944F1068E670E082E794E00E94690F52
:100810001F5F011768F76BE670E082E794E00E94C3
:10082000AC0FDF91CF911F910F9108958093B0028B
:1008300008951F93CF93DF93EC01FC01EB57FF4F1B
:10084000208130E0C901019683709078182FFB0158
:10085000A181FE01EC57FF4F8081811701F181E2F8
:10086000829FA001839F500D1124FE01E40FF51F0C
:1008700010829A012F5F3F4F2C0F3D1FB0E0119661
:10088000FB0131964A2F5B2F6E2F7F2F822F932FE4
:100890000E944011CB57DF4F188381E001C080E0F8
:1008A000DF91CF911F910895DC01AC57BF4FFC0140
:1008B000EB57FF4F81E02C919081291380E0089540
:1008C000F894FC01EB57FF4F208130E02F5F3F4F42
:1008D00023703078FC01EC57FF4F81E09081921338
:1008E00080E0789408951F93CF93DF93EC0184EA1E
:1008F00091E00E946004182FBE0184EA91E00E94FA
:10090000C1038823C9F08091B002882349F066E2D0
:1009100071E082E794E00E94D210CE010E94E403CD
:10092000112361F0E091B102F091B2028285882337
:1009300039F0E99A81E005C080E003C081E001C0A0
:1009400081E0DF91CF911F9108951F93CF93DF93A3
:10095000EC0189818032E0F4BE018AE292E00E94DB
:100960001904182F8091B002882349F069E271E0E0
:1009700082E794E00E94D210CE010E94E403E0914D
:10098000B102F091B20260E081810E94780C01C056
:1009900010E0812FDF91CF911F910895CF92DF92C8
:1009A000EF92FF920F931F93CF93DF93CDB7DEB7F4
:1009B000A1970FB6F894DEBF0FBECDBFE091B10294
:1009C000F091B20260E081810E94780CBE016F5FFD
:1009D0007F4F8AE292E00E94C103811102C0198216
:1009E0001A828A810E94BB038093B3028B810E948A
:1009F000BB038093B4024A81442351F050E041503C
:100A00005109282F30E0241735070CF49A01822F62
:100A1000803208F08FE18823F1F08E010C5F1F4FC8
:100A20000F2EF5EBEF2EF2E0FF2EF02D81500F2E62
:100A3000F5E0CF2ED12CF02DCC0EDD1EC80ED11C32
:100A4000F80181918F010E94BB03F70181937F011F
:100A50000C151D05A9F7E091B102F091B20261E019
:100A600081810E94780C83B7816083BFE091B102DD
:100A7000F091B2028285882339F040E050E063E6CD
:100A800075E083850E94CD0A8AE292E00E945404B8
:100A9000811108C0E091B102F091B20260E0818161
:100AA0000E94780C83EB92E0A1960FB6F894DEBF1B
:100AB0000FBECDBFDF91CF911F910F91FF90EF90AF
:100AC000DF90CF90089583B78E7F83BF81E00E942F
:100AD000F00A0E94CE04FC0121812223A9F0BC016E
:100AE00084EA91E00E941904811101C0FFCF84EAD9
:100AF00091E00E946004882339F0E091B102F09106
:100B0000B20282858111E99808959093B202809390
:100B1000B1020895CF93DF93EC011092B4020E94CA
:100B200085050E94D40780E00E94EB078E810E9419
:100B3000FA0780E00E94F5078AE292E00E949C0397
:100B400084EA91E00E949C0362E08A810E94390C51
:100B500061E089810E94390C88858F3F19F060E03F
:100B60000E94390C8F818F3F09F161E00E94390C9E
:100B70008881813079F461E08F810E94780C64E68D
:100B800070E080E090E00E94A50B60E08F810E9401
:100B9000780C0CC061E08F810E94780C60E08F813E
:100BA0000E94780C61E08F810E94780C60E08C815B
:100BB0000E94780C60E08B810E94780C61E0898152
:100BC0000E94780C60E08D810E94780C6EE170E0EC
:100BD00080E090E00E94A50B8A85882339F040E0F0
:100BE00050E063E675E08B850E94CD0ADF91CF91DE
:100BF0000895262F269526952695FC01E20FF11DD6
:100C0000248D30E06770C90102C0959587956A957B
:100C1000E2F78170089585ED92E00E94E20284ED92
:100C200092E00E94A504089585ED92E00E94B10231
:100C300084ED92E00E94A50408951F93CF93DF9363
:100C4000CDB7DEB765970FB6F894DEBF0FBECDBF48
:100C5000342F752F122F862F90E00197FC01EE0F95
:100C6000FF1F8E0F9F1FE0910303F0910403E80F15
:100C7000F91F80818130C9F42531C8F46983FE01F0
:100C80003296422F50E0632F8E2F9F2F0E944011EB
:100C9000412FBE016F5F7F4F85ED92E00E94B7024A
:100CA00084ED92E00E94A50403C080E001C080E0D2
:100CB00065960FB6F894DEBF0FBECDBFDF91CF9122
:100CC0001F910895CF93DF9300D000D0CDB7DEB74A
:100CD0009A8389837C836B83BE016F5F7F4F85ED31
:100CE00092E00E94CE0284ED92E00E94A5040F9053
:100CF0000F900F900F90DF91CF9108951F93CF9396
:100D0000DF93CDB7DEB765970FB6F894DEBF0FBEA1
:100D1000CDBF142F282F30E021503109F901EE0FFB
:100D2000FF1F2E0F3F1FE0910303F0910403E20F1A
:100D3000F31F218132812230310519F02430310531
:100D4000C9F41531C8F489839E012E5F3F4F412FAE
:100D500050E0822F932F0E944011412FBE016F5F00
:100D60007F4F85ED92E00E94E80284ED92E00E94C0
:100D7000A50403C080E001C080E065960FB6F8943A
:100D8000DEBF0FBECDBFDF91CF911F91089585EDDE
:100D900092E00E94FF0284ED92E00E94A504089573
:100DA0000F931F93CF93DF93EC018B018A85811101
:100DB00018C08A810E94CC0C892B89F08AE292E0CB
:100DC0000E94540481110DC084EA91E00E946004E5
:100DD000811107C060E089810E94780C02C00E94E6
:100DE0006305C8010E9473048823C1F1F801928150
:100DF000983829F0993829F1963881F514C098016E
:100E00002D5F3F4FDE015C96055F1F4FA49698E073
:100E1000F90141919F014D93F80141918F0149934F
:100E20009150B1F71BC0DE015C96FE01B49690E0D4
:100E30001D9211929F5F9830D9F71CA69B899D8BBC
:100E40000DC0F801238134813F8B2E8B25813681A3
:100E5000398F288F278130853B8F2A8FDF91CF9163
:100E60001F910F9108950F931F93CF93DF93EC0180
:100E70008881813009F059C064E670E080E090E03C
:100E80000E94A50B0E940B0606ED12E064ED72E0D5
:100E9000CE010E94D0068823C9F3F80180818438EE
:100EA000A9F78091D8028338A1F484E08093D50219
:100EB00081E88093D60282E08093D7021092D80214
:100EC0008093D90264ED72E084EA91E00E941904F3
:100ED0002CC0811115C084E08093D50281E88093F5
:100EE000D60283E08093D7021092D80282E08093EA
:100EF000D90264ED72E084EA91E00E94190415C001
:100F0000823899F484E08093D50281E88093D602F8
:100F100081E08093D7021092D8021092D90264ED3A
:100F200072E084EA91E00E941904DF91CF911F9151
:100F30000F9108950F931F93CF93DF938C01EC01D2
:100F40006C96DC019496E5EFF2E02DEF32E0199219
:100F50001D921192E217F307D1F71092FD02109241
:100F6000FE021092FF0210920003109201031092F1
:100F70000203F8018485958590930403809303030D
:100F8000878590899093060380930503C8010E948A
:100F90008A05C8010E943307DF91CF911F910F91FD
:100FA00008950E941604089561E08AE00E94780C7A
:100FB00061E08AE00E94390C8CB580618CBD8CB5F3
:100FC00080648CBD61E08DE00E94390C61E08BE0B3
:100FD0000E94390C0895811104C08CB580628CBDCB
:100FE00008958CB58F7D8CBD08959CB5937F892B1A
:100FF0008CBD08959CB5282F23709C7F922B9CBD9F
:101000002DB582FB992790F9822F8E7F892B8DBD7C
:101010000895CF93DF9369EB73E08BE493E00E9434
:10102000D006882309F452C18091BB03883809F4A3
:101030009BC078F4843809F460C020F4813809F04A
:1010400045C128C0853809F47FC0863809F03EC103
:10105000A5C08A3809F4E8C008F499C08C3821F09A
:101060008D3809F033C1FEC08091BA0390E0029739
:10107000181619060CF02AC180910803803409F46F
:1010800025C1EDEBF3E080E090E049E053E0CAEBEE
:10109000D3E0A1C08091BE0380935E038091BC0326
:1010A000823021F0833009F011C114C061E273E095
:1010B00082E794E00E94AC0F8BE493E00E94380337
:1010C000823009F403C16BE373E082E794E00E948D
:1010D000AC0FFCC06EE473E082E794E00E94AC0FBA
:1010E00060E570E084EB90E00E9462066AE673E0DF
:1010F00082E794E00E94AC0FE9C08091BD03882391
:10110000A9F06EE773E082E794E00E94690F40E186
:1011100050E06091BC0382E794E00E9461106BE8AC
:1011200073E082E794E00E94AC0FFFCF8091BC0394
:10113000893009F0CBC029E04EEB53E064E08BE44A
:1011400093E00E941D06C2C081E08093B80363EC67
:1011500073E082E794E00E94AC0F80915E0380937D
:1011600060030E941406B2C061ED73E082E794E070
:101170000E94AC0F63E08BE493E00E94F9058823A2
:1011800009F4A4C08091DB038111A0C09AC061EE74
:1011900073E082E794E00E94AC0F98C01092B8030D
:1011A00081E08093070366E074E082E794E00E94A8
:1011B000AC0F60E071E084EB90E00E9462066DE2AB
:1011C00074E082E794E00E94AC0F80C02091080395
:1011D000203409F47BC020910F0130911001295473
:1011E000334021F45093100140930F01A0910F015F
:1011F000B091100121912C93209108032F5F20932F
:10120000080320910F01309110012F5F3F4F309361
:10121000100120930F010196288130E022503109FE
:10122000821793079CF252C0C0E6D3E09091BC03B2
:101230008881890F88836BE271E082E794E00E94E5
:10124000D21064E471E082E794E00E94D2104AE098
:1012500050E0688182E794E00E94611081E0809311
:10126000070334C061E474E082E794E00E94690FF0
:101270004AE050E06091BC0382E794E00E944F1086
:101280006DE574E082E794E00E94690F40E150E070
:101290006091BD0382E794E00E946110C0E6D3E054
:1012A00088818F5F888364E471E082E794E00E9424
:1012B000D2104AE050E0688182E794E00E94611019
:1012C00005C00E94C70681E08093DB03DF91CF91C8
:1012D000089585E191E0909358038093570384E04B
:1012E000809359038CE690E090935B0380935A03BC
:1012F00085E180935C0391E090934B03809113010F
:1013000080934C038091140180934D038BE0809374
:101310004E038CE080934F038DE08093500385E073
:10132000809351038FEF80935203809353038093F4
:101330005403109255039093560381E00E94D10705
:101340008BE493E00E949A0764E670E080E090E00E
:101350000E94A50B0895409108034423D9F0809181
:101360001101909112018954934031F489E093E086
:101370009093120180931101E0911101F0911201FB
:10138000219130E0F0931201E0931101415040931C
:10139000080302C02FEF3FEF822F932F0895809113
:1013A000080308958091B80308951F93CF93DF93A6
:1013B00063E08BE493E00E94F905882309F499C067
:1013C00080914A03811149C094C0612F70E0685830
:1013D0007C4F44E183E00E947E068823A9F06CE5FF
:1013E00071E082E794E00E94D2104AE050E064E1AC
:1013F00070E082E794E00E94BF106FE371E082E743
:1014000094E00E94D21006C06EE771E082E794E09B
:101410000E94D51080914A03845180934A031C5E38
:1014200088818150888364E471E082E794E00E94BF
:10143000D2104AE050E0688182E794E00E94611097
:10144000109207038091070381110AC00E940908C6
:1014500080910703811104C0F9CF10E0C0E6D3E00A
:1014600040914A03453108F0B0CF612F70E06858D1
:101470007C4F83E00E947E068823A9F06CE571E032
:1014800082E794E00E94D2104AE050E060914A0363
:1014900082E794E00E944F106FE371E082E794E0EE
:1014A0000E94D21006C06EE771E082E794E00E94CD
:1014B000D51010924A03C0E6D3E08881815088831A
:1014C00064E471E082E794E00E94D2104AE050E0C8
:1014D000688182E794E00E94611010920703809176
:1014E0000703811106C00E94090880910703882321
:1014F000D1F30E940908DF91CF911F9108950E94B6
:10150000690940E052EC61E070E082E794E00E94FB
:10151000A90D61E0809121010E94390C63E774E01C
:1015200082E794E00E94AC0F0895CF9310C00E9410
:10153000AB09C82F62E874E082E794E00E94690F6B
:101540004AE050E06C2F82E794E00E9461100E9414
:10155000CF098111ECCF0E94D20981110DC0809179
:10156000DC03882331F062E974E082E794E00E94B2
:10157000690F1092DC030DC08091DC03811106C05D
:1015800063EA74E082E794E00E94690F81E080934F
:10159000DC030E94D509CF910895823000F5E82F31
:1015A000F0E0EE0FFF1FE352FC4F7183608388234E
:1015B00019F08130A1F408C0809169008C7F842BE0
:1015C00080936900E89A089580916900440F551F3F
:1015D000440F551F837F842B80936900E99A0895F7
:1015E000823080F4882319F0813021F402C0E89819
:1015F00001C0E998E82FF0E0EE0FFF1FE352FC4F27
:101600001182108208951F920F920FB60F9211242B
:101610002F933F934F935F936F937F938F939F93FA
:10162000AF93BF93EF93FF938091DD039091DE031F
:10163000892B29F0E091DD03F091DE030995FF91FC
:10164000EF91BF91AF919F918F917F916F915F913A
:101650004F913F912F910F900FBE0F901F901895B3
:101660001F920F920FB60F9211242F933F934F9317
:101670005F936F937F938F939F93AF93BF93EF93FA
:10168000FF938091DF039091E003892B29F0E09193
:10169000DF03F091E0030995FF91EF91BF91AF91C6
:1016A0009F918F917F916F915F914F913F912F917A
:1016B0000F900FBE0F901F9018951F920F920FB6AC
:1016C0000F9211242F933F938F939F93AF93BF93C8
:1016D0008091E5039091E603A091E703B091E803C0
:1016E0003091E9030196A11DB11D232F2D5F2D37E8
:1016F00020F02D570196A11DB11D2093E903809381
:10170000E5039093E603A093E703B093E803809189
:10171000E1039091E203A091E303B091E403019609
:10172000A11DB11D8093E1039093E203A093E30315
:10173000B093E403BF91AF919F918F913F912F910F
:101740000F900FBE0F901F9018959B01AC017FB7B3
:10175000F8948091E1039091E203A091E303B091AA
:10176000E40366B5A89B05C06F3F19F00196A11D63
:10177000B11D7FBFBA2FA92F982F8827860F911DE3
:10178000A11DB11D62E0880F991FAA1FBB1F6A959A
:10179000D1F7BC012DC0FFB7F8948091E10390917F
:1017A000E203A091E303B091E403E6B5A89B05C072
:1017B000EF3F19F00196A11DB11DFFBFBA2FA92F50
:1017C000982F88278E0F911DA11DB11DE2E0880F73
:1017D000991FAA1FBB1FEA95D1F7861B970B885E3E
:1017E0009340C8F2215030404040504068517C4FF7
:1017F000211531054105510571F60895789484B598
:10180000826084BD84B5816084BD85B5826085BDFC
:1018100085B5816085BDEEE6F0E0808181608083E2
:10182000E1E8F0E0108280818260808380818160C5
:101830008083E0E8F0E0808181608083E1EBF0E08C
:10184000808184608083E0EBF0E080818160808330
:10185000EAE7F0E080818460808380818260808319
:101860008081816080838081806880831092C10044
:101870000895CF93DF93482F50E0CA018D519B4FBD
:10188000FC01349141535B4FFA018491882369F143
:1018900090E0880F991FFC01EF54FB4FA591B49184
:1018A000FC01E554FB4FC591D491662351F42FB749
:1018B000F8948C91932F909589238C938881892318
:1018C0000BC0623061F42FB7F8948C91932F9095F0
:1018D00089238C938881832B88832FBF06C09FB771
:1018E000F8948C91832B8C939FBFDF91CF910895B7
:1018F000482F50E0CA0189509B4FFC012491CA0136
:101900008D519B4FFC01949141535B4FFA013491EF
:10191000332309F440C0222351F1233071F02430E5
:1019200028F42130A1F0223011F514C02630B1F096
:101930002730C1F02430D9F404C0809180008F7723
:1019400003C0809180008F7D8093800010C084B59B
:101950008F7702C084B58F7D84BD09C08091B000AF
:101960008F7703C08091B0008F7D8093B000E32F0C
:10197000F0E0EE0FFF1FE554FB4FA591B4912FB798
:10198000F894662321F48C919095892302C08C9160
:10199000892B8C932FBF0895682F70E0CB0189505D
:1019A0009B4FFC012491CB018D519B4FFC01449135
:1019B00061537B4FFB019491992319F420E030E0AF
:1019C0003CC0222351F1233071F0243028F421301F
:1019D000A1F0223011F514C02630B1F02730C1F04B
:1019E0002430D9F404C0809180008F7703C08091A7
:1019F00080008F7D8093800010C084B58F7702C0F7
:101A000084B58F7D84BD09C08091B0008F7703C0FD
:101A10008091B0008F7D8093B000892F90E0880F77
:101A2000991F8B539B4FFC01A591B4918C9120E0A1
:101A300030E0842311F021E030E0C90108950895D9
:101A40001F920F920FB60F9211242F933F934F9333
:101A50008F939F93EF93FF938091C00082FD1DC0F1
:101A60004091C60020912A0430912B042F5F3F4FF4
:101A70002F73307080912C0490912D042817390712
:101A800071F0E0912A04F0912B04E651FC4F408361
:101A900030932B0420932A0402C08091C600FF914A
:101AA000EF919F918F914F913F912F910F900FBE8A
:101AB0000F901F901895E0917E04F0917F04E05CF8
:101AC000FF4F8191919120813181821B930B8F7304
:101AD0009070892B11F00E941F0D08951F920F9294
:101AE0000FB60F9211242F933F938F939F93EF93F1
:101AF000FF9320916E0430916F0480917004909157
:101B000071042817390731F48091C1008F7D8093CB
:101B1000C10014C0E0917004F0917104E25DFB4FCC
:101B20002081809170049091710401968F73907060
:101B300090937104809370042093C600FF91EF91FD
:101B40009F918F913F912F910F900FBE0F901F90FB
:101B50001895AF92BF92DF92EF92FF920F931F936F
:101B6000CF93DF93EC017A018B01DD24403081EECD
:101B7000580780E0680780E0780711F0DD24D394EF
:101B800091E0A92EB12CEC89FD89DD2069F0C50119
:101B900008A002C0880F991F0A94E2F7808360E0D2
:101BA00079E08DE390E005C0108260E874E88EE192
:101BB00090E0A80197010E94F81021503040404069
:101BC0005040569547953795279580E12030380746
:101BD00020F0DD2011F0DD24D6CFE889F9893083AB
:101BE000EA89FB89208319A2EE89FF89408121E0DF
:101BF00030E0C9010C8C02C0880F991F0A94E2F7EB
:101C0000482B4083EE89FF894081C9010D8C02C0B9
:101C1000880F991F0A94E2F7482B4083EE89FF89C9
:101C20004081C9010E8C02C0880F991F0A94E2F707
:101C3000482B4083EE89FF8980810F8C02C0220FE0
:101C4000331F0A94E2F7209528232083DF91CF9158
:101C50001F910F91FF90EF90DF90BF90AF9008958C
:101C6000DC011C96ED91FC911D97E05CFF4F2191EA
:101C7000319180819181281B390B2F733070C901FC
:101C80000895DC011C96ED91FC911D97E05CFF4FDF
:101C900020813181E054F040DF01AE5BBF4F8D9178
:101CA0009C9111972817390719F42FEF3FEF07C0C0
:101CB0008D919C91E80FF91F8081282F30E0C90198
:101CC0000895DC011C96ED91FC911D97E05CFF4F9F
:101CD00020813181E054F040DF01AE5BBF4F8D9138
:101CE0009C9111972817390719F42FEF3FEF10C077
:101CF0008D919C911197E80FF91F20818D919C91F6
:101D0000119701968F73907011969C938E9330E08B
:101D1000C9010895DC0191968C919197882339F03F
:101D20005496ED91FC915597808186FFF9CF91965D
:101D30001C920895CF93DF93EC01EE85FF85E05C64
:101D4000FF4F20813181E054F0402F5F3F4F2F73D0
:101D50003070DF01AE5BBF4F8D919C9111972817BA
:101D60003907D1F3E05CFF4F80819181E054F0406E
:101D7000E80FF91F6083EE85FF85E05CFF4F31833C
:101D80002083EE89FF89208181E090E00F8C02C0E2
:101D9000880F991F0A94E2F7282B208381E089A3FA
:101DA000EC89FD8980818064808381E090E0DF910F
:101DB000CF910895109275041092740488EE93E008
:101DC000A0E0B0E08093760490937704A093780429
:101DD000B093790488E991E090937304809372043E
:101DE0008AEE93E090937F0480937E048EE294E0E9
:101DF000909381048093800485EC90E09093830419
:101E00008093820484EC90E0909385048093840412
:101E100080EC90E0909387048093860481EC90E0BE
:101E2000909389048093880482EC90E090938B04D3
:101E300080938A0486EC90E090938D0480938C04C8
:101E400084E080938E0483E080938F0487E0809306
:101E5000900485E08093910481E08093920408953A
:101E6000CF93DF930E94FE0B0E947F0ACBE5DDE05B
:101E70000E94950A2097E1F30E945B0DF9CFCF9263
:101E8000DF92EF92FF920F931F93CF93DF937C012A
:101E90006B018A01C0E0D0E00FC0D6016D916D01E9
:101EA000D701ED91FC910190F081E02DC7010995DA
:101EB000C80FD91F015010400115110571F7CE014F
:101EC000DF91CF911F910F91FF90EF90DF90CF9016
:101ED0000895EF92FF920F931F93CF93DF937C01AE
:101EE0008B01C0E0D0E0F8010F5F1F4F64916623C3
:101EF00059F0D701ED91FC910190F081E02DC701DF
:101F00000995C80FD91FEFCFCE01DF91CF911F9157
:101F10000F91FF90EF900895EF92FF920F931F9310
:101F20008C01DC01ED91FC910190F081E02D6DE0E0
:101F300009957C01D801ED91FC910190F081E02D93
:101F4000C8016AE009959C012E0D3F1DC9011F9132
:101F50000F91FF90EF900895EF92FF920F931F93D0
:101F60007C010E94690F8C01C7010E948C0F9C01AB
:101F7000200F311FC9011F910F91FF90EF9008951D
:101F8000CF93DF93EC016115710519F420E030E087
:101F90000FC0DB010D900020E9F71197A61BB70BCE
:101FA000E881F9810280F381E02DAD0109959C0162
:101FB000C901DF91CF9108954F925F927F928F92E6
:101FC0009F92AF92BF92CF92DF92EF92FF920F93C8
:101FD0001F93DF93CF93CDB7DEB7A1970FB6F894D9
:101FE000DEBF0FBECDBF2C01742ECB01223008F412
:101FF0002AE019A231E2C32ED12CCC0EDD1E822E96
:102000009924AA24BB24672D752FA50194010E9451
:10201000F81079018A01C801B701A50194010E9455
:10202000E810472D461B0894C108D1084A3014F423
:10203000405D01C0495CF6014083E114F1040105F3
:10204000110521F07E2C5F2DC801DDCFC201B60144
:102050000E94C00FA1960FB6F894DEBF0FBECDBF91
:10206000CF91DF911F910F91FF90EF90DF90CF9074
:10207000BF90AF909F908F907F905F904F9008950A
:10208000DC012115310541F4ED91FC910190F081C5
:10209000E02D642F099508950E94DC0F0895EF92BA
:1020A000FF920F931F939A01E62EFF2400E010E0A9
:1020B000B801A7010E9440101F910F91FF90EF906F
:1020C0000895CF92DF92EF92FF920F931F936C01CE
:1020D000E62E9A01FF2400E010E0B801A7010E945B
:1020E00040108C01C6010E948C0F080F191FC801F7
:1020F0001F910F91FF90EF90DF90CF900895CF92B6
:10210000DF92EF92FF920F931F93CF93DF93EC0137
:102110006A017B012115310541F4E881F9810190C3
:10212000F081E02D642F09951FC02A303105D1F4CC
:1021300077FF17C0E881F9810190F081E02D6DE211
:1021400009958C0144275527BA014C195D096E0980
:102150007F09CE012AE00E94DC0F9801280F391F69
:1021600004C02AE00E94DC0F9C01C901DF91CF91DD
:102170001F910F91FF90EF90DF90CF900895EF9215
:10218000FF920F931F937B019A010027F7FC0095A4
:10219000102FB801A7010E947F101F910F91FF908F
:1021A000EF9008950E94C00F0895EF92FF920F9351
:1021B0001F937C010E94C00F8C01C7010E948C0FED
:1021C000080F191FC8011F910F91FF90EF900895FC
:1021D000DB018F939F930E942C11BF91AF91A29F1F
:1021E000800D911DA39F900DB29F900D1124089515
:1021F000A1E21A2EAA1BBB1BFD010DC0AA1FBB1F0B
:10220000EE1FFF1FA217B307E407F50720F0A21B7C
:10221000B30BE40BF50B661F771F881F991F1A94E9
:1022200069F760957095809590959B01AC01BD0113
:10223000CF010895EE0FFF1F0590F491E02D099452
:10224000A29FB001B39FC001A39F01D0B29F700DA8
:10225000811D1124911D08950E942011A59F900DAC
:10226000B49F900DA49F800D911D11240895FB0132
:10227000DC0102C005900D9241505040D8F70895FE
:10228000FB01DC0102C001900D9241505040D8F793
:062290000895F894FFCF51
:102296006E616E00696E66006F7666002E0000093C
:1022A60003090309080180000108000102000180FA
:1022B600000D00203A0020450043004143495F4598
:1022C60056545F444154415F43524544495420208B
:1022D6002020200044617461204372656469742083
:1022E600617661696C61626C653A20006461746153
:1022F600207472616E736D6D6974207375636365A6
:1023060073732120204C656E6774683A20006461FF
:102316007461207472616E736D6D69742066616993
:102326006C202100000000009A0E3F0F300E610E57
:04233600410E8A0EBC
:00000001FF
